:100000000C9454060C947C060C947C060C947C0690
:100010000C947C060C947C060C947C060C947D2F2E
:100020000C947C060C947C060C947C060C949A31FF
:100030000C947C060C947C060C947C060C947C0638
:100040000C9431300C947C060C94FF2F0C94D92F17
:100050000C947C060C947C060C947C060C947C0618
:100060000C947B300C947C06000103070F1F3F7F2C
:100070000080C0E0F0F8FCFE00000000003E5B4F96
:100080005B3E3E6B4F6B3E1C3E7C3E1C183C7E3CF8
:10009000181C577D571C1C5E7F5E1C00183C180006
:1000A000FFE7C3E7FF0018241800FFE7DBE7FF3096
:1000B000483A060E2629792926407F050507407F04
:1000C00005253F5A3CE73C5A7F3E1C1C08081C1C77
:1000D0003E7F14227F22145F5F005F5F06097F016D
:1000E0007F006689956A606060606094A2FFA29458
:1000F00008047E040810207E201008082A1C080826
:100100001C2A08081E101010100C1E0C1E0C303873
:100110003E3830060E3E0E06000000000000005F74
:1001200000000007000700147F147F14242A7F2A90
:100130001223130864623649562050000807030052
:10014000001C2241000041221C002A1C7F1C2A089E
:10015000083E080800807030000808080808000001
:1001600060600020100804023E5149453E00427F75
:10017000400072494949462141494D331814127FC4
:100180001027454545393C4A494931412111090764
:100190003649494936464949291E000014000000E5
:1001A00040340000000814224114141414140041B7
:1001B00022140802015909063E415D594E7C121174
:1001C000127C7F494949363E414141227F414141AC
:1001D0003E7F494949417F090909013E4141517327
:1001E0007F0808087F00417F41002040413F017F98
:1001F000081422417F404040407F021C027F7F0460
:1002000008107F3E4141413E7F090909063E4151A8
:10021000215E7F09192946264949493203017F0198
:10022000033F4040403F1F2040201F3F4038403F99
:10023000631408146303047804036159494D4300AF
:100240007F4141410204081020004141417F0402E6
:10025000010204404040404000030708002054547D
:1002600078407F284444383844444428384444285B
:100270007F385454541800087E090218A4A49C78AE
:100280007F0804047800447D40002040403D007F0A
:100290001028440000417F40007C047804787C08EA
:1002A0000404783844444438FC18242418182424BE
:1002B00018FC7C08040408485454542404043F44A3
:1002C000243C4040207C1C2040201C3C4030403CD2
:1002D00044281028444C9090907C4464544C440032
:1002E0000836410000007700000041360800020196
:1002F0000204023C2623263C1EA1A161123A404082
:10030000207A3854545559215555794122545478FE
:1003100042215554784020545579400C1E52721297
:100320003955555559395454545939555454580020
:1003300000457C410002457D420001457C407D1224
:1003400011127DF0282528F07C5455450020545486
:100350007C547C0A097F4932494949323A44444431
:100360003A324A4848303A4141217A3A424020786C
:10037000009DA0A07D3D4242423D3D4040403D3C6D
:1003800024FF2424487E4943662B2FFC2F2BFF0992
:1003900029F620C0887E0903205454794100004486
:1003A0007D413048484A32384040227A007A0A0A71
:1003B000727D0D19317D2629292F282629292926E4
:1003C00030484D4020380808080808080808382F29
:1003D00010C8ACBA2F102834FA00007B00000814B3
:1003E0002A142222142A14085500550055AA55AA89
:1003F00055AAFF55FF55FF000000FF00101010FF29
:1004000000141414FF001010FF00FF1010F010F083
:10041000141414FC001414F700FF0000FF00FF1474
:1004200014F404FC141417101F10101F101F1414C0
:10043000141F00101010F0000000001F101010100A
:100440001F10101010F010000000FF1010101010FE
:1004500010101010FF10000000FF140000FF00FF3C
:1004600000001F10170000FC04F4141417101714D8
:1004700014F404F40000FF00F714141414141414FA
:10048000F700F7141414171410101F101F1414146D
:10049000F4141010F010F000001F101F0000001FD7
:1004A00014000000FC140000F010F01010FF10FF0A
:1004B000141414FF141010101F00000000F010FF9F
:1004C000FFFFFFFFF0F0F0F0F0FFFFFF0000000083
:1004D00000FFFF0F0F0F0F0F3844443844FC4A4A07
:1004E0004A347E02020606027E027E0263554941BC
:1004F000633844443C04407E201E2006027E0202F3
:1005000099A5E7A5991C2A492A1C4C7201724C3006
:100510004A4D4D303048784830BC625A463D3E49DD
:100520004949007E0101017E2A2A2A2A2A44445F81
:10053000444440514A444040444A51400000FF0175
:1005400003E080FF000008086B6B08361236243683
:10055000060F090F060000181800000010100030E8
:1005600040FF0101001F01011E00191D1712003C70
:100570003C3C3C000000000000000000230026007E
:100580002900000000080002010000030407000029
:1005900000000000000000000000240027002A00E6
:1005A000DB40A4A62EAF2000A1C8D300408DAED55D
:1005B00080A80000600000000000000000000000B3
:1005C000000000E00000000000000000000000004B
:1005D0000001E0000000000000000000000000003A
:1005E00001F0000000000000000000000000000317
:1005F000F00000000000000000000000000007F014
:100600000000000000000000000000000007F800EB
:100610000000000000000000000000000FF80000D3
:100620000003C0007E000001E0007F0FF800000022
:1006300003C000FE000001E000FFEFF8000000032F
:10064000C000FE000001E000FFFFF800000003C052
:1006500000F00000000F007FFE7FC0000003C0001C
:10066000F00000000F003FFE7FF83FF1FBCFFCFEE3
:10067000F3BC3DEFE01FFE7FFF7FFBFFDFFEFEFFD1
:10068000BC3DEFE01FC6FFFF7FFBFFDFFEFEFFBCB0
:100690003DEFE00FE3C7FE787BC3DE1EF0FFBC3DFD
:1006A000EF0007FF87FC787BC3DE1EF0F83C3DEFD0
:1006B0000001FFFFF0007BC3C01EF0F03C3DEF00E7
:1006C00001F37FE03FFBC3CFFEF0F03C3DEF0003C2
:1006D000E33F807FFBC3DFFEF0F03C3DEF0007E728
:1006E0003C00787BC3DE1EF0F03C3DEF0007FFBE10
:1006F00000787BC3DE1EF0F03C3DEF0007FFFE00FC
:10070000787BC3DE1EF0F03C3DEF000FFFFE007F64
:10071000FBFFDFFEF0F03FFDEFE00FFFFF007FFB90
:10072000FFDFFEF0F03FFDEFE00FF9FF003E79F94B
:10073000CF9EF0F01F3DE7E01FF1FF00000000003A
:10074000000000000000001F80FF007FFFFFFFFF90
:10075000FFFFFFFFFFE01C007F007FFFFFFFFEB4F5
:100760006D888D18E000001F007FFFFFFFFE95AD34
:100770007DB577E000000F007FFFFFFFFEA5AD9D78
:100780008D19E0000006007FFFFFFFFEB5ADEDB55F
:100790007EE000000000000180000000000000007A
:1007A0000000038000000000000000000007C000FF
:1007B000000000000000000007C000000000000072
:1007C0000000000FC00000000000000000001FE05B
:1007D0000000000000000000001FE000000000001A
:1007E000000000003FE00000000000000000003FAB
:1007F000F00000000000000000007FF0000000009A
:100800000000001FF87FF0000000000000003FFE25
:100810007FF0000000000000003FFF7FF0000000BC
:10082000000000001FFFFBE0000000000000000FC0
:10083000FFF9FFC00000000000000FFFF9FFF80003
:10084000000000000007FFF1FFFF000000000000B3
:1008500003FC73FFFF80000000000001FE3FFFFF6C
:1008600080000000000000FF1E0FFF0000000000DD
:1008700000007FFE1FFC000000000000003FFFFFA3
:10088000F8000000000000000FDFFFE000000000A3
:100890000000001F19FFC0000000000000003F3CE6
:1008A000FF00000000000000007E7CF80000000057
:1008B000000000007FFE7C0000000000000000FF40
:1008C000FFFC0000000000000000FFFFFE00000031
:1008D0000000000000FFFFFE00000000000000011B
:1008E000FFEFFE0000000000000001FFCFFE00004F
:1008F000000000000003FF07FE00000000000000F1
:1009000003FC07FE0000000000000003F003FE00EF
:10091000000000000000018000FE00000000000058
:10092000000000007E000000000000000000003E0B
:10093000000000000000000000000C0000000000AB
:1009400000078000FC000003C0000000078001FCDD
:10095000000003C0000000078001FC000003C0008D
:100960000000078001E00000001E00000007800179
:10097000E00000001E007FE3F79FF9FDE7787BDFD2
:10098000C0FFF7FFBFFDFDFF787BDFC0FFF7FFBFB4
:10099000FDFDFF787BDFC0F0F787BC3DE1FF787B92
:1009A000DE00F0F787BC3DE1F0787BDE0000F787E2
:1009B000803DE1E0787BDE007FF7879FFDE1E07816
:1009C0007BDE00FFF787BFFDE1E0787BDE00F0F71C
:1009D00087BC3DE1E0787BDE00F0F787BC3DE1E0DD
:1009E000787BDE00F0F787BC3DE1E0787BDE00FF3E
:1009F000F7FFBFFDE1E07FFBDFC0FFF7FFBFFDE1D9
:100A0000E07FFBDFC07CF3F39F3DE1E03E7BCFC0A6
:100A10000000000000000000000000FFFFFFFFFFDB
:100A2000FFFFFFFFFFC0FFFFFFFFFD68DB111A3173
:100A3000C0FFFFFFFFFD2B5AFB6AEFC0FFFFFFFF68
:100A4000FD4B5B3B1A33C0FFFFFFFFFD6B5BDB6AB7
:100A5000FDC00000000000000000000000000000D9
:100A6000000000001C000E03010003020000004013
:100A7000000000007F803F0FCFE00FDFC00000804C
:100A8000000000007FE03F8FFFF81FFFF0000780AD
:100A9000000000007FE03F8FFFFC1FFFF800088090
:100AA000000000007FF03F8FFFFC1FFFFC0018805C
:100AB000000000007FF03F8FFFFE1FFFFC00108052
:100AC000000000003FF03F8FFFFE1FFFFE00108080
:100AD0000000000007F03F8FF9FF1FF1FE00190032
:100AE0000000000003F03F8FE07F1FE0FE001F00CA
:100AF0000000000003F03F8FE07F1FC07E00300049
:100B00000000000003F03F8FE07F1FC07F00203E09
:100B10000000000003F03F8FE07F1FC07E004061B7
:100B20000000000003F03F8FE07F1FE0FE00404127
:100B30000000000007F83F8FE07F1FF1FE00C0C1FA
:100B4000000000007FFE3F8FE07F1FFFFE01C1E637
:100B500000000000FFFF3F8FE07F1FFFFC03FC1839
:100B600000000000FFFF3F8FE07F1FFFFC07C00079
:100B700000000000FFFF3F8FE07F1FFFF81F000015
:100B800000000000FFFF3F8FE07F1FFFF03E0000EE
:100B900000000000FFFF3F0FC03F1FDFC0FC000050
:100BA000000000003FFC0E07801E1FC701F0000080
:100BB0000000000003F0000000001FC007E000007C
:100BC0000000000003F0000000001FC00FC0000084
:100BD0000000000003F00E01E0381FC03380000069
:100BE0000000000003F03F03F0FC1FC0E70000001E
:100BF0000000000003F03F87F0FE1FC18C000000E2
:100C00000000000003F03F87F0FE1FC01800000046
:100C10000000000000E03F87F0FE1FC03000000031
:100C20000000000000003F83F0FE1FC060000000D5
:100C30000000000000001F03F07C0F800000000097
:100C400000000000000000000000000000000000A4
:100C500000005353443133303620616C6C6F636154
:100C600074696F6E206661696C6564000102040836
:100C70001020408001020408102001020408102006
:100C800000000000250028002B00040404040404D4
:100C9000040402020202020203030303030302220A
:100CA00000FF21007F32E93611241FBECFEFD8E0CC
:100CB000DEBFCDBF12E0A0E0B1E0E8ECF3E702C098
:100CC00005900D92AC31B107D9F724E0ACE1B2E068
:100CD00001C01D92A738B207E1F716E0C3E5D6E0E0
:100CE00004C02197FE010E94D337C235D107C9F74E
:100CF0000E947A330C94D7390C94000008958F9297
:100D00009F92AF92BF92FF920F931F93CF93DF9367
:100D1000F090D4032BE02F1508F44CC02091D6039B
:100D200008E512E0021B110927FD1395000F111FA2
:100D3000000F111F2091D503C8E8D0E0C21BD109D4
:100D400027FDD395CC0FDD1FCC0FDD1F4E010D2EDF
:100D5000000CAA08BB089801012E000C440B550B8F
:100D6000281939094A095B09DC010E94573724EB2D
:100D700030E040E050E00E942D37820E931EA41E0A
:100D8000B51E8C169D062CF0E801801691060CF419
:100D9000E4012297CC0FDD1F2FB7F8948F2D90E040
:100DA000FC01EE0FFF1FE80FF91FE155FC4FD28346
:100DB000C1832FBFDF91CF911F910F91FF90BF9003
:100DC000AF909F908F90089508950895AF92BF922D
:100DD000CF92DF92EF92FF920F931F93CF93DF9307
:100DE0006C017B018B01040F151FEB015E01AE1836
:100DF000BF08C017D10759F06991D601ED91FC9158
:100E00000190F081E02DC6010995892B79F7C50184
:100E1000DF91CF911F910F91FF90EF90DF90CF90D6
:100E2000BF90AF900895FC01538D448D252F30E085
:100E3000842F90E0821B930B541710F0CF960895E7
:100E400001970895FC01918D828D981761F0A28D14
:100E5000AE0FBF2FB11D5D968C91928D9F5F9F73DA
:100E6000928F90E008958FEF9FEF0895FC01918D90
:100E7000828D981731F0828DE80FF11D858D90E0FD
:100E800008958FEF9FEF0895FC01918D228D892F9A
:100E900090E0805C9F4F821B91098F739927089582
:100EA00082E193E00E94440721E0892B09F420E0CD
:100EB000822F089580E090E0892B29F00E9450074E
:100EC00081110C9400000895FC01A48DA80FB92F86
:100ED000B11DA35ABF4F2C91848D90E001968F7362
:100EE0009927848FA689B7892C93A089B1898C9181
:100EF000837080648C93938D848D981306C00288D0
:100F0000F389E02D80818F7D80830895EF92FF9299
:100F10000F931F93CF93DF93EC0181E0888F9B8D1C
:100F20008C8D98131AC0E889F989808185FF15C0D6
:100F30009FB7F894EE89FF896083E889F9898081F9
:100F40008370806480839FBF81E090E0DF91CF91C8
:100F50001F910F91FF90EF900895F62E0B8D10E0EA
:100F60000F5F1F4F0F731127E02E8C8D8E110CC059
:100F70000FB607FCFACFE889F989808185FFF5CFA4
:100F8000CE010E946407F1CFEB8DEC0FFD2FF11D18
:100F9000E35AFF4FF0829FB7F8940B8FEA89FB89E1
:100FA00080818062CFCFCF93DF93EC01888D88233F
:100FB000B9F0AA89BB89E889F9898C9185FD03C0BC
:100FC000808186FD0DC00FB607FCF7CF8C9185FFA1
:100FD000F2CF808185FFEDCFCE010E946407E9CF7B
:100FE000DF91CF910895833081F028F4813099F01A
:100FF0008230A9F008958730A9F08830C9F0843094
:10100000B1F4809180008F7D03C0809180008F7744
:1010100080938000089584B58F7784BD089584B54A
:101020008F7DFBCF8091B0008F778093B0000895C3
:101030008091B0008F7DF9CFCF93DF93282F30E0E0
:10104000F901EE57FA4F8491F901E459F34FD49125
:10105000F901E657F34FC491CC23A1F081110E940E
:10106000F307EC2FF0E0EE0FFF1FE858FA4FA591C1
:10107000B491EC91ED2381E090E009F480E0DF9100
:10108000CF91089580E090E0FACF1F93CF93DF9344
:10109000282F30E0F901EE57FA4F8491F901E45915
:1010A000F34FD491F901E657F34FC491CC23A9F043
:1010B000162F81110E94F307EC2FF0E0EE0FFF1FB7
:1010C000E058F34FA591B4918FB7F894EC911111BA
:1010D00008C0D095DE23DC938FBFDF91CF911F91A5
:1010E0000895DE2BF8CF9091000189130BC0EEE933
:1010F000FCE0E4919FEF90930001E13049F028F08B
:10110000E23061F060E00C94450810926E00FACF76
:1011100090916F009D7F90936F00F4CF909170003D
:101120009D7F9093700091E09093B0009091B100FA
:10113000987F94609093B1001092B300E3CFCF9367
:10114000DF9390E0FC01E459F34F24918657934FCD
:10115000FC0184918823D1F090E0880F991FFC0155
:10116000EA56FA4FA591B491FC01E058F34FC591AE
:10117000D491623071F49FB7F8943C91822F80959E
:1011800083238C93E8812E2B28839FBFDF91CF91FF
:1011900008958FB7F894EC912E2B2C938FBFF6CF38
:1011A0008091D4038C3008F051C061E08BE00E9444
:1011B0009F088091D403282F30E0F901EE0FFF1F24
:1011C000E20FF31FE155FC4F9081907C9B60908370
:1011D0001092D5031092D6032CE0622F0E94C737DD
:1011E000829FB001112430E020E0AB01420F531F79
:1011F000FA01EE0FFF1FE40FF51FE155FC4F908140
:1012000096FD16C02F5F3F4F2C30310571F78111CD
:101210000FC01092800082E08093810010928500C0
:1012200010928400B19A80916F00826080936F0069
:10123000E091D4038E2F90E0FC01EE0FFF1FE80F2A
:10124000F91FE155FC4F8081806480838091D40335
:1012500008954F925F926F927F928F929F92AF927A
:10126000BF92CF92DF92EF92FF920F931F93CF9393
:10127000DF9300D000D01F92CDB7DEB78C012A01DA
:101280003B01809100018930C9F08F3F09F485C08E
:101290000F900F900F900F900F90DF91CF911F91B3
:1012A0000F91FF90EF90DF90CF90BF90AF909F9005
:1012B0008F907F906F905F904F900895EEE9FCE0E3
:1012C00084918D8387FDE4CF61E089E00E949F08CF
:1012D0008D81882321F09D81923009F0CFC0480193
:1012E000B12CA12C60E072E18AE790E0A5019801A1
:1012F0000E942D3729833A834B835C8368E478EE20
:1013000081E090E0A50198010E942D3769017A01E2
:1013100081E0C81AD108E108F1089D81992309F4F8
:1013200056C1923009F051C18FEFC816D104E104C3
:10133000F10409F00CF485C164E274EF80E090E000
:10134000A50198010E942D3769017A0191E0C91A1F
:10135000D108E108F10885E09FEFC916D104E10446
:10136000F10409F008F4F9C062E17AE780E090E066
:10137000A50194010E942D3769017A0191E0C91AF3
:10138000D108E108F1088FEFC816D104E104F10497
:1013900011F00CF0D1C086E0E0C089E0809300013C
:1013A000EEE9FCE094919D839F3F09F471CF913069
:1013B00029F158F0923009F43FC08D8187FD68CF44
:1013C00061E089E00E949F0886CF14BC15BC84B5FB
:1013D000826084BD85B5816085BDE3E9FCE0E49170
:1013E000F0E0EE0FFF1FE058F34F85919491E5E791
:1013F000FCE0E491E09301031D8266CF109280002F
:10140000109281008091810088608093810080919A
:101410008100816080938100E3E9FCE0E491F0E0E9
:10142000EE0FFF1FE058F34F85919491E5E7FCE044
:10143000E491E093000348CF1092B0001092B10005
:101440008091B00082608093B0008091B100816093
:101450008093B100E3E9FCE0E491F0E0EE0FFF1FC0
:10146000E058F34F859194919093FF028093FE0290
:10147000E5E7FCE0E491E093FD0226CFB12CA12C3E
:1014800060E072E18AE790E0A50198010E942D37A3
:1014900069017A0181E0C81AD108E108F108C11494
:1014A000D10491E0E906F10434F591E08D818130B9
:1014B00009F059C080918100887F892B8093810039
:1014C0002FEF3FEFA901411451046104710409F0A9
:1014D000AAC0D0928900C09288002093060330935E
:1014E0000703409308035093090380916F008260C3
:1014F00080936F00CDCE68E478EE81E090E0A501A6
:1015000098010E942D3769017A0181E0C81AD1083B
:10151000E108F10893E0CACFC092B3002093020320
:1015200030930303409304035093050380917000AC
:10153000826080937000ACCEC980DA80EB80FC8042
:101540009AE0F594E794D794C7949A95D1F791E0EF
:10155000C91AD108E108F10887E09091B100987F9D
:10156000892B8093B1002FEF3FEFA9014114510463
:101570006104710409F057C09D81913009F4A9CF2D
:10158000923051F2911184CEC7BC20930A0330935C
:101590000B0340930C0350930D0380916E00826007
:1015A00080936E0075CEC980DA80EB80FC808AE083
:1015B000F594E794D794C7948A95D1F781E0C81A37
:1015C000D108E108F10895E021C084E0C5CE93E0A0
:1015D0008FEFC816D104E104F104C1F0BCF062E160
:1015E0007AE780E090E0A50194010E942D3769011F
:1015F0007A0181E0C81AD108E108F1089FEFC91605
:10160000D104E104F10409F074F694E085B5887F13
:10161000892B85BD2FEF3FEFA901411451046104CF
:10162000710409F4B1CFD801AA0FBB1FA301920125
:101630000E944C3728EE33E040E050E00E9496379D
:101640009BCF84E08ACF3FB7F8948091E2029091DB
:10165000E302A091E402B091E50226B5A89B05C083
:101660002F3F19F00196A11DB11D3FBFBA2FA92F21
:10167000982F8827BC01CD01620F711D811D911D1E
:1016800042E0660F771F881F991F4A95D1F708958A
:101690008F929F92AF92BF92CF92DF92EF92FF9282
:1016A0004B015C010E94230B6B017C010E94230B08
:1016B0006C197D098E099F09683E7340810591056B
:1016C000A8F321E0821A9108A108B10888EEC80E9B
:1016D00083E0D81EE11CF11C81149104A104B10423
:1016E00029F7FF90EF90DF90CF90BF90AF909F9041
:1016F0008F9008952FB7F8946091DE027091DF0209
:101700008091E0029091E1022FBF08950F931F9303
:10171000CF93DF93EC0188810E941C089B8B8A8BFE
:10172000288939898217930751F00E947A0B6C8BB4
:101730007D8B8E8B9F8B8A899B89998B888B0E944E
:101740007A0B0C891D892E893F89601B710B820BD6
:10175000930B0A811B812C813D81601771078207E1
:10176000930740F08E859F859D878C878A899B890A
:101770009F878E872C853D858E859F852817390705
:1017800081F04A855B854230510581F48E819F81CD
:10179000A885B9850196A11DB11D8E839F83A88759
:1017A000B987DF91CF911F910F9108954115510590
:1017B00031F421303105A9F7892B41F3F2CF4130C3
:1017C000510579F7232B69F7019759F7DFCFFC0112
:1017D00084859585019729F481E026853785232B1B
:1017E00009F080E008950895FC016370668B8481A0
:1017F000958126813781613039F0633029F09187F6
:10180000808733872287089531872087938782874F
:1018100008952F923F924F925F926F927F928F9294
:101820009F92AF92BF92CF92DF92EF92FF920F936F
:101830001F93CF93DF93CDB7DEB76A970FB6F894B7
:10184000DEBF0FBECDBF9A8F898F7A8369834A012D
:10185000D22E18870F833701BC2CDC0159962D91AD
:101860003C915A972115310509F015C118968D91B3
:101870009C911997681779070CF0D7C11A968D912A
:101880009C91481759070CF0D0C14C2C512CB6E054
:10189000CB9E600D711D11247C876B871616170671
:1018A0000CF0C3C1EA2DF0E0FA87E98793E0EE0F70
:1018B000FF1F9A95E1F7F88BEF87CF01840F951FF3
:1018C000181619060CF0B1C1A98DBA8D58968C91D5
:1018D000811104C0BFEABD1508F4D394A98DBA8D57
:1018E000ED91FC9111970284F385E02DCD010995CE
:1018F000B5E0DB9EC0011124E981FA81FC83EB8312
:10190000312C212C9C0128583F4F388F2F8B4A2D8A
:1019100050E05E8B4D8BEF89F88DE20DF31D449105
:101920009E828D82D12CC12C69817A81620D731DBA
:101930007A8B698B842F90E09C8B8B8BE98DFA8D51
:10194000A081B18140FF82C0F1E0BF126FC0AF1231
:101950006DC01C96ED91FC912F813885A4014C0D32
:101960005D1D69897A89898D9A8D0995EB89FC8934
:10197000F595E7954E2F5FEFC51AD50A6D817E81EB
:101980008D899E89680F791F7E836D8398E0C916C3
:10199000D10481F6AFEF2A1A3A0AEB81FC81E40DFB
:1019A000F51DFC83EB83F5E02F16310409F0B3CF6E
:1019B0002F81388526153705B9F0A98DBA8DED919F
:1019C000FC91B1E0BB1257C0AB1255C069817A815E
:1019D0006B5F7F4F0088F189E02D830128E030E0C4
:1019E000A401898D9A8D0995A98DBA8DED91FC91EF
:1019F00011970688F789E02DCD016A960FB6F89405
:101A0000DEBF0FBECDBFDF91CF911F910F91FF9031
:101A1000EF90DF90CF90BF90AF909F908F907F908E
:101A20006F905F904F903F902F9009941E96ED918C
:101A3000FC91EF80F88409851A8592014D815E81C1
:101A40006B817C81898D9A8D099590CF2F81388506
:101A50002615370509F48ACF31E0B31207C0A31267
:101A600005C01C96ED91FC91930178CF1E96ED91E7
:101A7000FC917301E0CF6B857C8564197509068440
:101A8000F785E02D73010F8518899201A401898DD6
:101A90009A8D0995A9CFF901349694913297459181
:101AA0005491D91AB7E0DB9E400D511D1124F90164
:101AB000259134913C8B2B8BFA0125903490FA01BF
:101AC0003296749031963491398B32966490319677
:101AD000449041E04C1518F04A1508F07FC0662D7F
:101AE000062C000C770B7C836B83842D042C000C5C
:101AF000990B9E838D83A98DBA8DED91FC911197E1
:101B00000284F385E02DCD010995512CD12CC12CF7
:101B1000EA2DF0E0FA87E9872B2D30E03C872B8710
:101B2000A401440D511D47FC5A95588F4F8B698174
:101B30007A81660D711D67FC7A957E876D8779893C
:101B4000C71608F051CF2C2D30E04D815E81420F39
:101B5000531FA985BA854A9FC0014B9F900D5A9F7C
:101B6000900D1124FC01E80DF91DF88BEF87852DF0
:101B7000612C4F89588D420F531F5E8B4D8B67141C
:101B800008F050C044244394480E877041F4C101CA
:101B90000196EB89FC89E20DF31DD4901C01D7FE60
:101BA00019C0A98DBA8DED91FC91662D70E0B1E060
:101BB000BB1219C0AB1217C02D853E85620F731F73
:101BC0000484F585E02D2F8138854D895E89898DC6
:101BD0009A8D0995DD0C6394842DD1CF1E821D82D0
:101BE0001C821B8288CF4B815C81640F751FAB8583
:101BF000BC856A9FC0016B9F900D7A9F900D112448
:101C000069817A81680F791F0684F785E02DEF805E
:101C1000F88409851A859D014F855889898D9A8D8B
:101C20000995D8CF570CC3948ACF6A960FB6F8940B
:101C3000DEBF0FBECDBFDF91CF911F910F91FF90FF
:101C4000EF90DF90CF90BF90AF909F908F907F905C
:101C50006F905F904F903F902F9008958F929F923A
:101C6000AF92CF92EF92FF920F931F93CF93DF9398
:101C7000EC01262F898D9A8D009709F051C06A30AA
:101C8000D1F41D861C868D8948E0849F9001112423
:101C90008E859F85820F931F9F878E8781E090E0BE
:101CA000DF91CF911F910F91FF90EF90CF90AF9068
:101CB0009F908F9008956D3089F3CC88AD888F897F
:101CC0008823C1F08C859D8536E0C39E800D911DD3
:101CD0001124488559854817590764F44E855F8556
:101CE0001D861C8638E0A39EC0011124840F951F19
:101CF0009F878E87EA88FB88088919894E855F85CA
:101D00006C857D85CE010E94090C2C898C859D8572
:101D100046E0249F800D911D11249D878C87BECFA6
:101D20006A3069F41D861C86FC013896E4912D8981
:101D30008E859F85E29F800D911D1124ADCF6D3062
:101D400009F4ACCFFC0134963491631708F4A6CFA4
:101D50003296E491E61708F4A1CFFC013296859003
:101D60009490462F431B342F47E0349F800C911CE6
:101D70001124F401329634913196E4913323A9F180
:101D8000EE2399F1CC88F4013596E491AD884F8922
:101D9000442301F10E2E000CFF0BE30FF11DCE9E2C
:101DA000A001CF9E500D11246C857D85460F571FD5
:101DB00068857985641775076CF44E855F851D8687
:101DC0001C86FC013896E491AE9E400D511D1124F5
:101DD0005F874E87EA88FB88088919894E855F8569
:101DE0006C857D85CE010E94090CF4013496E49146
:101DF0002C898C859D85E29F800D911D11248DCFAE
:101E00006F927F928F929F92AF92BF92CF92DF920A
:101E1000EF92FF920F931F93CF93DF93EC016B012F
:101E20005A0139014801E881F9810284F385E02DE6
:101E30000995E881F9810288F389E02D87019301F2
:101E4000A501B601CE010995A501480D591D4150C6
:101E50005109E881F9810288F389E02D9301B601E7
:101E6000CE010995E881F9810088F189E02D94017E
:101E7000A501B601CE010995C60CD71CB60161506B
:101E80007109E881F9810088F189E02D9401A501AB
:101E9000CE010995E881F9810688F789E02DCE0108
:101EA000DF91CF911F910F91FF90EF90DF90CF9036
:101EB000BF90AF909F908F907F906F9009946F929A
:101EC0007F928F929F92AF92BF92CF92DF92EF92CA
:101ED000FF920F931F93CF93DF935C01EB016A0195
:101EE000490138018701DC01ED91FC91621773070C
:101EF00019F5641675062CF0962D872D3A01C92E1A
:101F0000D82E9601261937092F5F3F4F048CF58D87
:101F1000E02DA301BE01C5010995DF91CF911F916D
:101F20000F91FF90EF90DF90CF90BF90AF909F9078
:101F30008F907F906F9008954615570591F426175E
:101F4000370724F0892D4B01C22FD82F9E01281965
:101F500039092F5F3F4F068CF78DE02DA601B401A4
:101F6000DACF0284F385E02D0995D501ED91FC913E
:101F70000488F589E02D83019401A601BE01C50105
:101F80000995D501ED91FC910688F789E02DC501F1
:101F9000DF91CF911F910F91FF90EF90DF90CF9045
:101FA000BF90AF909F908F907F906F900994EF9229
:101FB000FF920F931F93DC011A960D911C911B97B2
:101FC00018962D913C911997ED91FC9100A0F1A1EB
:101FD000E02D7B0150E040E070E060E009951F914A
:101FE0000F91FF90EF9008954F925F926F927F92C2
:101FF0008F929F92AF92BF92CF92DF92EF92FF9219
:102000000F931F93CF93DF936C012B015A0139017A
:102010004801DC01ED91FC910284F385E02D0995E6
:10202000E201640C751CD601ED91FC91C615D70533
:102030005CF40088F189E02D87019401A501BE01BF
:10204000C60109952196EFCF0688F789E02DC601D4
:10205000DF91CF911F910F91FF90EF90DF90CF9084
:10206000BF90AF909F908F907F906F905F904F90B8
:1020700009948F929F92AF92BF92CF92DF92EF928C
:10208000FF920F931F93CF93DF93EC015B014A0103
:102090006901E881F9810284F385E02D09959501B4
:1020A0002C0D3D1D21503109E881F9810488F58905
:1020B000E02D78018401A401B501CE010995E881E4
:1020C000F9810688F789E02DCE01DF91CF911F912C
:1020D0000F91FF90EF90DF90CF90BF90AF909F90C7
:1020E0008F9009948F929F92AF92BF92CF92DF927E
:1020F000EF92FF920F931F93CF93DF93EC015B015D
:102100004A0169017801E881F9810284F385E02DB3
:102110000995C80CD91C860101501109E881F98183
:102120000488F589E02D9501A401B501CE0109953A
:10213000E881F9810688F789E02DCE01DF91CF9102
:102140001F910F91FF90EF90DF90CF90BF90AF90D5
:102150009F908F900994EF92FF920F931F93DC0151
:10216000ED91FC9100A0F1A1E02D09951F910F9137
:10217000FF90EF9008950F931F93DC01ED91FC9178
:10218000068CF78DE02D09951F910F9108950F93FF
:102190001F93DC01ED91FC91048CF58DE02D0995E8
:1021A0001F910F910895DC01ED91FC910084F18560
:1021B000E02D09943F924F925F926F927F928F929F
:1021C0009F92AF92BF92CF92DF92EF92FF920F93C6
:1021D0001F93CF93DF9300D000D0CDB7DEB75C0163
:1021E0003B016A014901280187E0480E511C93E038
:1021F000559447949A95E1F7CA018E0D9F1D9A83D5
:102200008983F12CE12C312C1C821B828B819C81D7
:1022100087709927330C892B61F4EB81FC8183E073
:10222000F595E7958A95E1F7EE0DFF1DE80DF91D8F
:10223000349037FE0AC021E030E0A6016B817C813A
:10224000660D771DC5010E94D3108B819C8101967C
:102250009C838B8308171907C9F69FEFC91AD90AFF
:10226000E40CF51C89819A81C816D90669F60F908D
:102270000F900F900F90DF91CF911F910F91FF90D2
:10228000EF90DF90CF90BF90AF909F908F907F9016
:102290006F905F904F903F9008952F923F924F9292
:1022A0005F926F927F928F929F92AF92BF92CF92E6
:1022B000DF92EF92FF920F931F93CF93DF9300D0A3
:1022C00000D000D0CDB7DEB73C016A013E832D833C
:1022D000FC82EB825801A41AB50AB7FE03C0B19480
:1022E000A194B1088D809E80861A970A97FE03C03C
:1022F0009194819491088A149B045CF0902F812F13
:102300000D811E819D838E839C2D8D2D6B01692FE8
:10231000782F0C151D055CF09D818E817E836D8369
:10232000692F782F902F812F8601C92ED82E160164
:10233000201A310A2B012D813E81421A530A57FE81
:1023400003C0519441945108710137FE03C03FEF1F
:10235000E31AF30AF594E7948D819E818617970717
:102360005CF5A1E0B0E0BA83A983C016D1064CF1B8
:10237000D301ED91FC910484F585E02D2B813C8106
:10238000A8016D817E818A149B041CF04D815E81C1
:10239000B801C3010995E418F508F7FE0AC02D81BC
:1023A0003E8189819A81280F391F3E832D83E20C5B
:1023B000F31C0F5F1F4FD9CF2FEF3FEF3A832983D5
:1023C000D4CF26960FB6F894DEBF0FBECDBFDF91F7
:1023D000CF911F910F91FF90EF90DF90CF90BF9022
:1023E000AF909F908F907F906F905F904F903F90B5
:1023F0002F900895EF92FF920F931F93CF93DF9347
:10240000EC01EC80FD806E157F050CF070C057FF6D
:1024100004C0240F351F50E040E08E819F81FA01F7
:10242000E20FF31F8E179F071CF49C01241B350B32
:10243000121613060CF05BC0922F842F869586959A
:1024400086958E9DD0018F9DB00D11246A0F7B1F44
:10245000AF8DB8A1A60FB71F477049F188E0841B64
:10246000482F682F70E0FB01E059FF4FE4912817D7
:1024700008F063C0621B71092FEF30E002C0359590
:1024800027956A95E2F7E2230130110539F0B0F1A2
:102490000230110561F58C91E82702C08C91E82B80
:1024A000EC93941720F12C813D81A20FB31FE92FEB
:1024B000E41BE83078F00230110521F58E2F9C9155
:1024C00090959C932C813D81A20FB31F885088303A
:1024D000B0F7E770EE2359F0F0E0E859FF4FE491D0
:1024E00001301105F9F010F10230110519F1DF91F9
:1024F000CF911F910F91FF90EF900895E0958C91EF
:10250000E823CECF81E00115110509F480E0819523
:102510009E2F8C932C813D81A20FB31F9850983031
:10252000C0F7D7CF8C91E82BEC93E1CFE0958C915D
:10253000E823FACF8C91E827F7CF0130110509F491
:10254000ADCFE0F20230110509F4A5CFAE0DBF1DED
:10255000AECF0F931F93CF93DF9377FF04C0260F67
:10256000371F70E060E0DC011496CD91DC91FB0137
:10257000E20FF31FCE17DF071CF49E01261B370B5B
:10258000121613064CF5FA0157FD3796A3E0F595A0
:10259000E795AA95E1F7EC9FD001ED9FB00DFC9F68
:1025A000B00D11246A0F7B1FDC015F96ED91FC9149
:1025B000E60FF71F4770552781E090E001C0880FB4
:1025C0004A95EAF7482F0130110559F0A8F02E0F6F
:1025D0003F1F02301105E1F0DF91CF911F910F9164
:1025E00008952E0F3F1FE217F307B1F38191DF012A
:1025F0001197842B8C93F7CF80952E0F3F1FE217F6
:10260000F30751F39191DF01119798239C93F7CF32
:10261000E217F30709F38191DF01119784278C9367
:10262000F7CF0F931F93FA01DC0156964C91569702
:102630004230E9F04330A1F1413061F514964D91FB
:102640005C91DA01AE1BBF0BFD01E21BF30B77FDC2
:102650000BC0DC0116964D915C916417750724F44C
:10266000AB01BF010E94A9121F910F91089514960A
:102670004D915C91DA01A61BB70BBD016150710948
:10268000DC0116964D915C91DA01AE1BBF0BFD018A
:10269000E21BF30B77FDE8CFAF010E94FA11E4CF04
:1026A00016964D915C91DA01A61BB70BBD016150E6
:1026B0007109CDCF0F931F93FA01DC0156964C910F
:1026C00056974230A9F0433091F1413019F51496F4
:1026D0004D915C91DA01AE1BBF0BFD013197F7FD07
:1026E00004C0AB01BF010E94FA111F910F91089520
:1026F00014964D915C91DA01A61BB70BBD01DC016C
:1027000016964D915C91DA01AE1BBF0BFD0131971E
:10271000621B730BF7FDE9CFDC0116964D915C91BE
:10272000E417F50714F7AF010E94A912DECF169641
:102730004D915C91DA01A61BB70BBD01621B730BB7
:10274000CECFFC0177FD64C080859185681779073D
:102750000CF05EC057FD5CC0828593854817590711
:102760000CF056C086898230B1F0833029F1813077
:1027700041F484819581841B950BAB01BC016150B0
:1027800071092130310509F108F443C022303105C7
:1027900009F463C0089584819581DC01A61BB70B01
:1027A000BD016150710986819781DC01A41BB50BC5
:1027B000AD0141505109E5CF86819781861B970B6A
:1027C000BA01AC0141505109DCCFCA0157FD07964F
:1027D000A3E095958795AA95E1F7A481B5818A9F95
:1027E00090018B9F300D9A9F300D1124620F731F43
:1027F000078CF0A1E02DE60FF71F4770552721E069
:1028000030E001C0220F4A95EAF78081822B808355
:102810000895CA0157FD079633E0959587953A9537
:10282000E1F7A481B5818A9F90018B9F300D9A9F1B
:10283000300D1124620F731F078CF0A1E02DE60FFD
:10284000F71F4770552781E090E001C0880F4A9537
:10285000EAF7809590818923DACFCA0157FD079660
:1028600023E0959587952A95E1F7A481B5818A9F04
:1028700090018B9F300D9A9F300D1124620F731FB2
:10288000078CF0A1E02DE60FF71F4770552721E0D8
:1028900030E001C0220F4A95EAF780818227B7CF46
:1028A00008958EBD00000DB407FEFDCF8EB50895CE
:1028B0008CBD9DBD0895089520919302260F332766
:1028C000331F21323105ECF42091B702FC0190E076
:1028D00080E0243069F082E00895A0919302219174
:1028E000AC014D585D4FA40FB52FB11D2C9301962F
:1028F000861798F380919302680F6093930280E0AB
:10290000089581E008951092B70281E08093B902A2
:102910001092B80261E082E10E94450861E083E123
:102920000E944508E9EBF0E080818E7F8083808102
:102930008D7F808388E48093B80085E48093BC0019
:102940000895CF93DF9391E0909372028823B9F0BA
:10295000C091B800D091BA008091BC008A7B80936E
:10296000BC0060E082E10E94450860E083E10E94D3
:1029700045080E948314D093BA00C093B800DF9139
:10298000CF910895E091EC028091EB02E81730F4CA
:10299000F0E0E35BFD4F808190E008958FEF9FEFC3
:1029A00008959091EC028091EB022FEF3FEF981782
:1029B00048F4E92FF0E0E35BFD4F208130E09F5FBA
:1029C0009093EC02C90108958091EB029091EC0282
:1029D000891B990B0895CF92DF92EF92FF920F938C
:1029E0001F93CF93DF937C01CB018A0120911103C8
:1029F000222389F0EB016B01C40ED51ECC15DD0539
:102A000069F06991D701ED91FC910190F081E02D81
:102A1000C7010995F3CF642F0E945C14C801DF91B0
:102A2000CF911F910F91FF90EF90DF90CF9008957D
:102A3000CF93DF931F92CDB7DEB769832091110347
:102A40002223F9F020910E03203258F021E030E0EB
:102A5000FC013383228390E080E00F90DF91CF91DF
:102A6000089580910F03E82FF0E0E35DFD4F998119
:102A700090838F5F80930F0380930E0381E090E03B
:102A8000ECCF61E0CE0101960E945C14F7CFCF92AB
:102A9000DF92EF92FF920F931F93CF93DF93D0912A
:102AA0000E0381E0D13208F09CC0C09110030E9457
:102AB000230B6B017C018091B70281116CC082E015
:102AC0008093B70281E08093B9028FEF8093B602C2
:102AD0001092DB02D093DA02ADE2B2E0EAEBF2E070
:102AE00080E0D8138DC01092DC028091DC02CC0F04
:102AF000C82BC093DC028091B802813009F084C0F9
:102B00001092B8020E94230B6B017C018091DC02C1
:102B10008093BB0080916E0290916F02A091700231
:102B2000B0917102892B8A2B8B2BA1F00E94230B71
:102B300000916E0210916F0220917002309171022B
:102B40006C197D098E099F09061717072807390791
:102B500008F442C08091BC0083FDD8CF85EC8093FF
:102B6000BC000E94230B6B017C018091B702823074
:102B700009F44CC08091B6028F3F09F469C080917E
:102B8000B602803209F466C08091B602803309F43F
:102B900063C084E026C080916E0290916F02A09184
:102BA0007002B0917102892B8A2B8B2B09F483CF91
:102BB0000E94230B00916E0210916F02209170020F
:102BC000309171026C197D098E099F09061717074C
:102BD0002807390708F06FCF80916D020E94A11479
:102BE00085E010920F0310920E0310921103DF91F3
:102BF000CF911F910F91FF90EF90DF90CF900895AC
:102C00009D9191938F5F6DCF85EEA9CF80916E02DC
:102C100090916F02A0917002B0917102892B8A2B62
:102C20008B2B09F4A2CF0E94230B00916E0210910E
:102C30006F0220917002309171026C197D098E092A
:102C40009F09061717072807390708F08ECFC4CF4A
:102C500080E0C7CF82E0C5CF83E0C3CFEF92FF9281
:102C60000F931F93CF93DF937C01C62F80910004B5
:102C700090910104009709F459C02091040431E0B7
:102C8000309311032093100310920F0310920E0340
:102C9000DC01ED91FC910190F081E02D60E009955F
:102CA0008701EE24E394F12CD1E0C150809100041F
:102CB00090910104CF3F91F1B0E2EB16F104D8F00E
:102CC0000E94471580910004909101042091040412
:102CD000D09311032093100310920F0310920E0350
:102CE000DC01ED91FC910190F081E02D60E009950F
:102CF000EE24E394F12C8091000490910104F801FA
:102D00006491DC01ED91FC910190F081E02D099539
:102D1000BFEFEB1AFB0A0F5F1F4FC7CFDF91CF91B9
:102D20001F910F91FF90EF900C944715E0911004C4
:102D3000F0911104908180911604809589238083FD
:102D40008701C15008F438C0F80184912091FE0336
:102D50003091FF03232B29F00E9451140F5F1F4F66
:102D6000F0CF28E030E040E8E0910C04F0910D0451
:102D700090911404582F5423D9F05081952B9083AF
:102D8000E0910E04F0910F04908150911504952B61
:102D90009083E0910E04F0910F04508190911504FE
:102DA000909595239083469521503109E9F6D6CF29
:102DB000508190959523E3CFDF91CF911F910F9193
:102DC000FF90EF9008951F93CF93DF93EC018D8DCB
:102DD0009E8D009721F1162F29A131E03093110328
:102DE0002093100310920F0310920E03DC01ED915B
:102DF000FC910190F081E02D60E009958D8D9E8D14
:102E0000DC01ED91FC910190F081E02D612F09959D
:102E10008D8D9E8DDF91CF911F910C944715ADA59F
:102E2000BEA59C918BA9809589238C938B8D9C8DBD
:102E3000892B31F0862FDF91CF911F910C94511483
:102E400028E030E080E8A9A5BAA599A9462F482333
:102E5000C1F04C91942B9C93ABA5BCA59C914AA925
:102E6000942B9C93ABA5BCA54C919AA990959423C7
:102E70009C9386952150310931F7DF91CF911F91B5
:102E800008954C9190959423E6CFDF92EF92FF92B4
:102E90000F931F93CF93DF938091000490910104CF
:102EA000892B09F498C0209118043091190440919D
:102EB0001A0450911B0460E074E284EF90E00E94D9
:102EC0009637205131094109510956954795379553
:102ED00027952093B80065E08FE99CE00E942E16AC
:102EE0006091E703615083EE93E00E94E316209126
:102EF000E9033091EA03C901079697FD079633E08D
:102F0000959587953A95E1F72091E7033091E8038D
:102F1000829F8001839F100D929F100D1124C091FC
:102F20000204D091030480910004909101040C0FDD
:102F30001D1F009709F48FC02091040431E03093E5
:102F400011032093100310920F0310920E03DC0163
:102F5000ED91FC910190F081E02D60E40995EE2463
:102F6000E394F12CDD24D39480910004909101042A
:102F70000C171D0709F446C0B0E2EB16F104D8F0B7
:102F80000E9447158091000490910104209104044F
:102F9000D09211032093100310920F0310920E038E
:102FA000DC01ED91FC910190F081E02D60E4099548
:102FB000EE24E394F12C8091000490910104699136
:102FC000DC01ED91FC910190F081E02D0995BFEFBE
:102FD000EB1AFB0AC9CF8091FE039091FF03892B66
:102FE00031F080912104909122040E945814E091C4
:102FF0001204F09113049081809117048095892325
:10300000808369CF0E94471580910004909101044C
:10301000892B09F461C020911C0430911D0440915A
:103020001E0450911F0460E074E284EF90E00E945F
:1030300096372051310941095109569547953795E1
:1030400027952093B800DF91CF911F910F91FF90AA
:10305000EF90DF900895E0911004F09111048081C9
:1030600090911604892B80830C171D0769F28991B2
:103070002091FE033091FF03232B19F00E9451147D
:10308000F3CF28E030E040E8E0910C04F0910D042B
:1030900090911404582F5423D9F05081952B90838C
:1030A000E0910E04F0910F04908150911504952B3E
:1030B0009083E0910E04F0910F04508190911504DB
:1030C000909595239083469521503109E9F6CCCF10
:1030D000508190959523E3CFE0911204F091130471
:1030E000808190911704892B8083ADCF1F93CF935C
:1030F000DF93EC01162F8D8D9E8D892BB1F12DA9BB
:103100003EA94FA958AD60E074E284EF90E00E94C0
:103110009637205131094109510956954795379500
:1031200027952093B80066EA111167EACE010E9444
:10313000E3168D8D9E8D892B41F129AD3AAD4BADB6
:103140005CAD60E074E284EF90E00E94963720511D
:10315000310941095109569547953795279520938F
:10316000B800DF91CF911F9108958B8D9C8D892B95
:1031700021F08EAD9FAD0E945814EFA5F8A9908163
:103180008CA9809589238083CECFEFA5F8A9808173
:103190009CA9892B8083E5CF90E080E0089560E0D2
:1031A0008CE00E9445088AE590E00E947F06E0914D
:1031B000D4038E2F90E0FC01EE0FFF1FE80FF91FE4
:1031C000E155FC4F80818F7B808308952091E90336
:1031D0003091EA03C901079697FD079623E095957C
:1031E00087952A95E1F72091E7033091E803829FC4
:1031F000A001839F500D929F500D112470E060E05C
:1032000080910204909103040C94C939FB01019050
:103210000020E9F73197AF01461B570BDC01ED9118
:10322000FC910280F381E02D09948F929F92AF92DE
:10323000BF92CF92DF92EF92FF920F931F93CF93A3
:10324000DF93CDB7DEB7A1970FB6F894DEBF0FBE00
:10325000CDBF6C01990FEE08FF08F7FE4BC06DE281
:1032600083EE93E00E942E0E8C0122273327A901C2
:103270002C193D094E095F0919A2CE0181967C01E6
:103280009AE0892E912CA12CB12CCA01B901A5017B
:1032900094010E949637605DF70162937F012115CA
:1032A00031054105510589F790E080E0309729F01C
:1032B000BF0183EE93E00E940619080F191F67E50E
:1032C00071E083EE93E00E940619800F911FA19692
:1032D0000FB6F894DEBF0FBECDBFDF91CF911F9127
:1032E0000F91FF90EF90DF90CF90BF90AF909F90A5
:1032F0008F900895A701960119A28E010F5D1F4FAF
:103300008AE0C82ED12CE12CF12CCA01B901A70109
:1033100096010E949637605DF80162938F01211536
:1033200031054105510589F7309739F0BF0183EE2A
:1033300093E00E9406198C01C2CF10E000E0BFCFDD
:103340000F931F93CF93DF93EC010E9406198C011A
:1033500067E571E0CE010E940619800F911FDF9191
:10336000CF911F910F9108958091EF029091F002FB
:103370008130910579F48091F9029091FA020196D9
:103380009093FA028093F9026AE571E082E193E09A
:103390000C94A019892BC1F781E090E09093F00282
:1033A0008093EF0282E090E09093FC028093FB0216
:1033B000EBCF8091F1029091F20281309105A9F456
:1033C0008091EF029091F002019749F48091F70209
:1033D0009091F80201969093F8028093F7026EE5BF
:1033E00071E082E193E00C94A019892BC1F781E090
:1033F00090E09093F2028093F1029093FC0280930C
:10340000FB02EDCF0F931F93CF93DF93EC01FB01F2
:103410004481558160817181E881F9810280F38165
:10342000E02D09958C0167E571E0CE010E94061937
:10343000800F911FDF91CF911F910F9108950E94EE
:10344000BB390F931F93CF93DF93EC018881998150
:10345000009759F02A813B812617370730F081E029
:10346000DF91CF911F910F9108958B016F5F7F4F77
:103470000E94FE38009759F0998388831B830A8342
:103480002C813D81232B59F7FC011082E8CF80E08D
:10349000E7CFCF93DF93EC0188819981009711F0FA
:1034A0000E947538198218821D821C821B821A8222
:1034B000DF91CF910895CF92DF92EF92FF920F9319
:1034C0001F93CF93DF93CDB7DEB762970FB6F89413
:1034D000DEBF0FBECDBF8C01CB01F801118210827F
:1034E00013821282158214824AE09E012F5F3F4FA1
:1034F0006901B9010E94F836F60101900020E9F750
:1035000031977F01EC18FD08B701C8010E94211A0C
:10351000811112C0C8010E94491A62960FB6F89430
:10352000DEBF0FBECDBFDF91CF911F910F91FF90F6
:10353000EF90DF90CF900895F801F582E482B60114
:10354000808191810E94D039E8CFEF92FF920F9352
:103550001F93CF93DF93EC01FB01E080F180E11436
:10356000F10411F10481158101151105A9F08C8177
:103570009D81080F191FB801CE010E94211A8823CE
:1035800099F0288139818C819D81B701820F931F29
:103590000E94D0391D830C83CE01DF91CF911F9102
:1035A0000F91FF90EF900895CE010E94491AF4CF39
:1035B000EF92FF920F931F93CF93DF93EC017B0168
:1035C000198218821B821A821D821C82FB010190C3
:1035D0000020E9F731978F01061B170BB8010E94F5
:1035E000211A811109C0CE01DF91CF911F910F9156
:1035F000FF90EF900C94491A1D830C83B7018881CA
:103600009981DF91CF911F910F91FF90EF900C94D2
:10361000D039FC0180819181009711F00C947538AC
:103620000895CF92DF92EF92FF920F931F93CF9363
:10363000DF93CDB7DEB72C970FB6F894DEBF0FBE81
:10364000CDBF10E000E00E947A0B609328027093D7
:10365000290280932A0290932B020E947A0BC09039
:103660002802D0902902E0902A02F0902B026C19D7
:103670007D098E099F09683C710581059105F8F463
:1036800040E050E0BA0183E290E00E94290983E221
:1036900094E00E94860B83E594E00E94860B83E20F
:1036A00094E00E94E70B81110E94B41983E594E035
:1036B0000E94E70B882389F20E94D919CECF0E947D
:1036C0007A0B609328027093290280932A029093C8
:1036D0002B020E947A0BC0902802D0902902E09021
:1036E0002A02F0902B026C197D098E099F09683C13
:1036F000710581059105D8F489E00E94730883E281
:1037000094E00E94860B83E594E00E94860B83E29E
:1037100094E00E94E70B81110E94B41983E594E0C4
:103720000E94E70B8823A9F20E94D919D2CFB801D1
:10373000CE0107960E945B1A63E671E0CE01019606
:103740000E94D81ABE01695F7F4FCE0101960E9488
:10375000A51ABC0182E193E00E94021ACE010196F3
:103760000E94091BCE0107960E94091B0F5F1F4F85
:103770000330110509F067CF2C960FB6F894DEBF21
:103780000FBECDBFDF91CF911F910F91FF90EF90B2
:10379000DF90CF900895CF92DF92EF92FF920F9338
:1037A0001F93CF93DF93CDB7DEB72C970FB6F89466
:1037B000DEBF0FBECDBF10E000E00E947A0B609329
:1037C00028027093290280932A0290932B020E9470
:1037D0007A0BC0902802D0902902E0902A02F09043
:1037E0002B026C197D098E099F09683C71058105C2
:1037F000910510F540E050E0BA0183E290E00E94AC
:10380000290983E294E00E94860B83E594E00E94FC
:10381000860B83E294E00E94E70B81110E94B419A9
:1038200083E594E00E94E70B882389F20E94D9196E
:10383000CECF01E010E0C1CF0E947A0B6093280246
:103840007093290280932A0290932B020E947A0B94
:10385000C0902802D0902902E0902A02F0902B021A
:103860006C197D098E099F09683C710581059105D8
:10387000D8F489E00E94730883E294E00E94860BEA
:1038800083E594E00E94860B83E294E00E94E70BBC
:1038900081110E94B41983E594E00E94E70B88230C
:1038A000A9F20E94D919D2CFB801CE0107960E9481
:1038B0005B1A63E671E0CE0101960E94D81ABE0140
:1038C000695F7F4FCE0101960E94A51ABC0182E17B
:1038D00093E00E94021ACE0101960E94091BCE01BC
:1038E00007960E94091B0130110509F0A2CF2C9602
:1038F0000FB6F894DEBF0FBECDBFDF91CF911F9101
:103900000F91FF90EF90DF90CF9008950F931F934A
:10391000CF93DF93CDB7DEB72C970FB6F894DEBF09
:103920000FBECDBF0E947A0B6093280270932902CC
:1039300080932A0290932B020E947A0B0091280216
:103940001091290220912A0230912B02601B710BE9
:10395000820B930B683C710581059105F8F440E0FA
:1039600050E0BA0183E290E00E94290983E294E0EA
:103970000E94860B83E594E00E94860B83E294E02C
:103980000E94E70B81110E94B41983E594E00E9424
:10399000E70B882389F20E94D919CECF0E947A0BB7
:1039A000609328027093290280932A0290932B023D
:1039B0000E947A0B009128021091290220912A027C
:1039C00030912B02601B710B820B930B683C7105CD
:1039D00081059105D8F489E00E94730883E294E0A0
:1039E0000E94860B83E594E00E94860B83E294E0BC
:1039F0000E94E70B81110E94B41983E594E00E94B4
:103A0000E70B8823A9F20E94D919D2CF70E060E0B9
:103A1000CE0107960E945B1A63E671E0CE01019623
:103A20000E94D81ABE01695F7F4FCE0101960E94A5
:103A3000A51ABC0182E193E00E94021ACE01019610
:103A40000E94091BCE0107960E94091B2C960FB6F7
:103A5000F894DEBF0FBECDBFDF91CF911F910F91C4
:103A60000895CF92DF92EF92FF920F931F93CF931F
:103A7000DF93CDB7DEB72C970FB6F894DEBF0FBE3D
:103A8000CDBF83E294E00E94860B83E594E00E9420
:103A9000860B8BE694E00E94860B8BE394E00E94F9
:103AA000860B86E00E941C088C019093270280936D
:103AB000260287E00E941C0890932502809324022E
:103AC0000E947A0BC0902002D0902102E090220246
:103AD000F09023026C197D098E099F0963337105EB
:103AE00081059105A8F180911E0290911F0208178F
:103AF000190771F10E947A0B6093200270932102E2
:103B00008093220290932302012BD1F48091F10241
:103B10009091F202009709F009C38091F50290910B
:103B2000F60201969093F6028093F5029093EE02CE
:103B30008093ED026BE671E082E193E00E94A019B0
:103B4000809126029091270290931F0280931E027B
:103B50000E947A0B009120021091210220912202F2
:103B600030912302601B710B820B930B6333710541
:103B70008105910508F44BC00091240210912502A3
:103B800080911C0290911D028017910709F43FC09B
:103B90000E947A0B6093200270932102809322028C
:103BA00090932302012B59F58091F5029091F60232
:103BB000181619065CF42091F1023091F202232BC1
:103BC00029F401979093F6028093F5028091F30215
:103BD0009091F4021816190664F42091F1023091C4
:103BE000F2022130310529F401979093F402809379
:103BF000F3026FE771E082E193E00E94A0198091E7
:103C000024029091250290931D0280931C0283E26E
:103C100094E00E94E70B81110E94B41983E594E0BF
:103C20000E94E70B81110E94D9198091FB029091AB
:103C3000FC02892B09F085C00E94E61881E090E023
:103C40009093F6038093F5039093F4038093F3032A
:103C500065E083EE93E00E94F40B11E01093F7030C
:103C60001093F80388E090E09093F0038093EF03C3
:103C70001092F2031092F10369E571E083EE93E094
:103C80000E94A01964E971E083EE93E00E94A019FC
:103C900069E971E083EE93E00E94A0196EE971E09A
:103CA00083EE93E00E94A01969E571E083EE93E052
:103CB0000E94A01982E08093F7038093F80380911B
:103CC000F5029091F6020E9415191093F7031093D4
:103CD000F80369E571E083EE93E00E94A01965EABC
:103CE00071E083EE93E00E94A0196BEA71E083EE2D
:103CF00093E00E94A01969E571E083EE93E00E94D1
:103D0000A01969E571E083EE93E00E94A01969E5CE
:103D100071E083EE93E00E94A01969E571E083EE03
:103D200093E00E94A01960EB71E083EE93E00E94A3
:103D3000A0190E9445176AE070E080E090E00E94C0
:103D4000480B0091FB021091FC020130110509F0B3
:103D50007EC00E94E6181093F6030093F5031093BB
:103D6000F4030093F30311E01093F7031093F803A7
:103D700088E090E09093F0038093EF031092F203B9
:103D80001092F10369E571E083EE93E00E94A019BF
:103D900064E971E083EE93E00E94A01965EB71E0A5
:103DA00083EE93E00E94A01969E571E083EE93E051
:103DB0000E94A01982E08093F7038093F80380911A
:103DC000F3029091F4020E9415191093F7031093D7
:103DD000F80369E571E083EE93E00E94A01965EABB
:103DE00071E083EE93E00E94A0196AEB71E083EE2C
:103DF00093E00E94A0196EEB71E083EE93E00E94C5
:103E0000A01962EC71E083EE93E00E94A01969E5CD
:103E100071E083EE93E00E94A01969E571E083EE02
:103E200093E00E94A01969E571E083EE93E00E949F
:103E3000A01960EB71E083EE93E00E94A0190E944C
:103E400045176AE070E080E090E00E94480B8091A6
:103E5000FB029091FC02029709F0BCC00E94E61898
:103E600011E01093F7031093F80381E090E0909332
:103E7000F6038093F5039093F4038093F30388E0B3
:103E800090E09093F0038093EF031092F20310926E
:103E9000F1036091F5027091F6026130710509F04D
:103EA00059C169E571E083EE93E00E94A01967ECC7
:103EB00071E083EE93E00E94A01902E00093F70303
:103EC0000093F8036091F5027091F602CE01079617
:103ED0000E945B1A69E571E0CE0101960E94D81A32
:103EE000BE01695F7F4FCE0101960E94A51ABC01F9
:103EF00083EE93E00E94021ACE0101960E94091BF4
:103F0000CE0107960E94091B69E571E083EE93E0FC
:103F10000E94A0191093F7031093F8036DEC71E061
:103F200083EE93E00E94A0190093F7030093F80337
:103F30006091F3027091F402CE0107960E945B1A21
:103F400069E571E0CE0101960E94D81ABE01695F51
:103F50007F4FCE0101960E94A51ABC0183EE93E02B
:103F60000E94021ACE0101960E94091BCE010796FB
:103F70000E94091B1093F7031093F80369E571E0A1
:103F800083EE93E00E94A01962ED71E083EE93E06E
:103F90000E94A01969E571E083EE93E00E94A019E8
:103FA00068ED71E083EE93E00E94A01969E571E08D
:103FB00083EE93E00E94A01960EB71E083EE93E042
:103FC0000E94A0190E9445176AE070E080E090E02E
:103FD0000E94480B8091F9029091FA020297D4F066
:103FE0001092FA021092F9021092F6021092F50263
:103FF0001092F4021092F3021092F0021092EF026B
:104000001092F2021092F1021092FC021092FB0246
:104010000E94CF188091F7029091F802029704F164
:104020001092F8021092F7028091ED029091EE0248
:104030009093F6028093F50281E090E09093F20273
:104040008093F1021092F4021092F3021092F002A7
:104050001092EF029093FC028093FB020E94CF1813
:104060000091F5021091F6020115110531F08091D1
:10407000F3029091F402892B11F40E94CF180130C1
:10408000110509F08FC28091F3029091F40201971B
:1040900009F08FC28091EF029091F002019709F030
:1040A00088C20E94861C8091F3029091F4020197CD
:1040B00009F078C20E947A0B60932802709329025B
:1040C00080932A0290932B020E947A0B009128027F
:1040D0001091290220912A0230912B02601B710B52
:1040E000820B930B643175408105910508F048C13E
:1040F0000E94D00884EB90E00E947F0683E294E067
:104100000E94860B83E594E00E94860B83E294E094
:104110000E94E70B81110E94B41983E594E00E948C
:10412000E70B882389F20E94D919CECF019709F0B5
:1041300001CD8091EF029091F002019709F4FACC41
:104140008091F3029091F40201969093F40280938F
:10415000F302F0CC6230710509F082C069E571E0CC
:1041600083EE93E00E94A01967EC71E083EE93E088
:104170000E94A01902E00093F7030093F8036091F6
:10418000F5027091F602CE0107960E945B1A69E56E
:1041900071E0CE0101960E94D81ABE01695F7F4F7F
:1041A000CE0101960E94A51ABC0183EE93E00E9405
:1041B000021ACE0101960E94091BCE0107960E94A9
:1041C000091B69E571E083EE93E00E94A01910934A
:1041D000F7031093F8036DEC71E083EE93E00E9417
:1041E000A0190093F7030093F8036091F302709114
:1041F000F402CE0107960E945B1A69E571E0CE01D8
:1042000001960E94D81ABE01695F7F4FCE010196C8
:104210000E94A51ABC0183EE93E00E94021ACE010F
:1042200001960E94091BCE0107960E94091B10935C
:10423000F7031093F80369E571E083EE93E00E94C1
:10424000A0196DED71E083EE93E00E94A01969E57D
:1042500071E083EE93E00E94A01962EE71E0A2CEBD
:104260006330710509F04BC069E571E083EE93E0BE
:104270000E94A01966EE71E083EE93E00E94A019FF
:104280006FEE71E083EE93E00E94A01969E571E0A2
:1042900083EE93E00E94A01969E571E083EE93E05C
:1042A0000E94A01964EF71E083EE93E00E94A019D0
:1042B00067EF71E083EE93E00E94A01969E571E079
:1042C00083EE93E00E94A0196AEF71E083EE93E021
:1042D0000E94A0196DEF71E083EE93E00E94A01997
:1042E00069E571E083EE93E00E94A01969E571E051
:1042F00083EE93E00E94A01969E571E053CECE01F0
:1043000007960E945B1A61E072E0CE0101960E945E
:10431000D81ABE01695F7F4FCE0101960E94A51A8F
:10432000BC0183EE93E00E94021ACE0101960E9426
:10433000091BCE0107960E94091B6091F302709140
:10434000F402CE0107960E945B1A6AE072E0CE0189
:1043500001960E94D81ABE01695F7F4FCE01019677
:104360000E94A51ABC0183EE93E00E94021ACE01BE
:1043700001960E94091BCE0107960E94091B22CEBE
:104380000E947A0B609328027093290280932A027C
:1043900090932B020E947A0B00912802109129021F
:1043A00020912A0230912B02601771078207930730
:1043B00051F58AE590E00E947F06E091D4038E2FAC
:1043C00090E0FC01EE0FFF1FE80FF91FE155FC4FD5
:1043D00080818F7B808383E294E00E94860B83E55B
:1043E00094E00E94860B83E294E00E94E70B811127
:1043F0000E94B41983E594E00E94E70B882351F2F0
:104400000E94D919C7CF0E947A0B6093280270933B
:10441000290280932A0290932B020E947A0B00912A
:1044200028021091290220912A0230912B02601B50
:10443000710B820B930B683B7B408105910568F5FE
:1044400061E08CE00E94450848EE53E060E070E0D7
:1044500084EF91E00E94290964EF71E080E090E030
:104460000E94480B89E00E94730883E294E00E9456
:10447000860B83E594E00E94860B83E294E00E9421
:10448000E70B81110E94B41983E594E00E94E70BC9
:10449000882319F20E94D919C0CF0E947A0B609329
:1044A00028027093290280932A0290932B020E9483
:1044B0007A0B009128021091290220912A02309152
:1044C0002B026017710782079307F9F460E08CE014
:1044D0000E94450889E00E94730883E294E00E94EC
:1044E000860B83E594E00E94860B83E294E00E94B1
:1044F000E70B81110E94B41983E594E00E94E70B59
:104500008823A9F20E94D919D2CF0E947A0B609316
:1045100028027093290280932A0290932B020E9412
:104520007A0B009128021091290220912A023091E1
:104530002B02601B710B820B930B6C3D7540810548
:10454000910510F560E08CE00E9445080E94D008BB
:1045500090E080E00E947F0683E294E00E94860B58
:1045600083E594E00E94860B83E294E00E94E70BCF
:1045700081110E94B41983E594E00E94E70B88231F
:1045800071F20E94D919CBCFE091D4038E2F90E025
:10459000FC01EE0FFF1FE80FF91FE155FC4F808172
:1045A0008F7B80838091F5029091F602019709F04C
:1045B000CDC38091F3029091F402029709F0E1C11A
:1045C0008091EF029091F002019709F0DAC10E9408
:1045D000CB1B8091F3029091F402029709F0CAC1BB
:1045E0000E947A0B609328027093290280932A021A
:1045F00090932B020E947A0B0091280210912902BD
:1046000020912A0230912B02601B710B820B930BBD
:1046100068347D4081059105F0F40E94D00884EB58
:1046200090E00E947F0683E294E00E94860B83E57F
:1046300094E00E94860B83E294E00E94E70B8111D4
:104640000E94B41983E594E00E94E70B882391F25D
:104650000E94D919CFCF0E947A0B609328027093E1
:10466000290280932A0290932B020E947A0B0091D8
:1046700028021091290220912A0230912B02601702
:1046800071078207930751F58AE590E00E947F0643
:10469000E091D4038E2F90E0FC01EE0FFF1FE80F96
:1046A000F91FE155FC4F80818F7B808383E294E08A
:1046B0000E94860B83E594E00E94860B83E294E0DF
:1046C0000E94E70B81110E94B41983E594E00E94D7
:1046D000E70B882351F20E94D919C7CF0E947A0BA9
:1046E000609328027093290280932A0290932B02F0
:1046F0000E947A0B009128021091290220912A022F
:1047000030912B02601B710B820B930B643F714045
:1047100081059105A0F561E08CE00E94450848EE16
:1047200053E060E070E084EF91E00E94290964EFBB
:1047300071E080E090E00E94480B89E00E947308DD
:1047400061E070E080E090E00E94480B83E294E03A
:104750000E94860B83E594E00E94860B83E294E03E
:104760000E94E70B81110E94B41983E594E00E9436
:10477000E70B882309F4BCCF0E94D919B9CF0E9456
:104780007A0B609328027093290280932A029093F7
:104790002B020E947A0B009128021091290220918D
:1047A0002A0230912B02601B710B820B930B6C3D24
:1047B000754081059105D0F561E08CE00E944508C7
:1047C0000E94D00890E080E00E947F0648EE53E00F
:1047D00060E070E084EF91E00E94290964EF71E0ED
:1047E00080E090E00E94480B89E00E94730861E03D
:1047F00070E080E090E00E94480B83E294E00E9429
:10480000860B83E594E00E94860B83E294E00E948D
:10481000E70B81110E94B41983E594E00E94E70B35
:10482000882309F4B6CF0E94D919B3CF0E947A0B1E
:10483000609328027093290280932A0290932B029E
:104840000E947A0B009128021091290220912A02DD
:1048500030912B02601B710B820B930B683E7340EF
:1048600081059105D0F561E08CE00E9445080E9429
:10487000D0088AE590E00E947F0648EE53E060E0B1
:1048800070E084EF91E00E94290968EE73E080E017
:1048900090E00E94480B89E00E9473086AE070E093
:1048A00080E090E00E94480B83E294E00E94860B37
:1048B00083E594E00E94860B83E294E00E94E70B7C
:1048C00081110E94B41983E594E00E94E70B8823CC
:1048D00009F4B6CF0E94D919B3CF0E947A0B609326
:1048E00028027093290280932A0290932B020E943F
:1048F0007A0B009128021091290220912A0230910E
:104900002B02601B710B820B930B603D774081057E
:10491000910510F560E08CE00E9445080E94D008E7
:1049200090E080E00E947F0683E294E00E94860B84
:1049300083E594E00E94860B83E294E00E94E70BFB
:1049400081110E94B41983E594E00E94E70B88234B
:1049500071F20E94D919CBCFE091D4038E2F90E051
:10496000FC01EE0FFF1FE80FF91FE155FC4F80819E
:104970008F7B80838091F5029091F602019709F078
:10498000E5C18091F3029091F402039709F0DEC132
:104990008091EF029091F002019709F0D7C10E9437
:1049A000111B8091F3029091F402039709F0CEC19C
:1049B0000E947A0B609328027093290280932A0246
:1049C00090932B020E947A0B0091280210912902E9
:1049D00020912A0230912B02601B710B820B930BEA
:1049E000683E734081059105F0F40E94D00884EB85
:1049F00090E00E947F0683E294E00E94860B83E5AC
:104A000094E00E94860B83E294E00E94E70B811100
:104A10000E94B41983E594E00E94E70B882391F289
:104A20000E94D919CFCF0E947A0B6093280270930D
:104A3000290280932A0290932B020E947A0B009104
:104A400028021091290220912A0230912B02601B2A
:104A5000710B820B930B6A3071058105910550F53E
:104A60008AE590E00E947F06E091D4038E2F90E0CB
:104A7000FC01EE0FFF1FE80FF91FE155FC4F80818D
:104A80008F7B808383E294E00E94860B83E594E031
:104A90000E94860B83E294E00E94E70B81110E9442
:104AA000B41983E594E00E94E70B882331F20E9459
:104AB000D919C3CF0E947A0B609328027093290200
:104AC00080932A0290932B020E947A0B0091280275
:104AD0001091290220912A0230912B02601B710B48
:104AE000820B930B683E734081059105A0F561E050
:104AF0008CE00E94450848EE53E060E070E084EFEF
:104B000091E00E94290964EF71E080E090E00E944A
:104B1000480B89E00E9473086AE070E080E090E052
:104B20000E94480B83E294E00E94860B83E594E0A8
:104B30000E94860B83E294E00E94E70B81110E94A1
:104B4000B41983E594E00E94E70B882309F4BCCFF5
:104B50000E94D919B9CF0E947A0B609328027093F2
:104B6000290280932A0290932B020E947A0B0091D3
:104B700028021091290220912A0230912B02601BF9
:104B8000710B820B930B643F714081059105D0F549
:104B900061E08CE00E9445080E94D00890E080E02F
:104BA0000E947F0648EE53E060E070E084EF91E001
:104BB0000E94290964EF71E080E090E00E94480BB8
:104BC00089E00E9473086AE070E080E090E00E9453
:104BD000480B83E294E00E94860B83E594E00E94F8
:104BE000860B83E294E00E94E70B81110E94B419C6
:104BF00083E594E00E94E70B882309F4B6CF0E9476
:104C0000D919B3CF0E947A0B6093280270932902BE
:104C100080932A0290932B020E947A0B0091280223
:104C20001091290220912A0230912B02601B710BF6
:104C3000820B930B6C3D754081059105D0F561E0C9
:104C40008CE00E9445080E94D0088AE590E00E940E
:104C50007F0648EE53E060E070E084EF91E00E9450
:104C6000290968EE73E080E090E00E94480B89E03B
:104C70000E9473086AE070E080E090E00E94480BB8
:104C800083E294E00E94860B83E594E00E94860B09
:104C900083E294E00E94E70B81110E94B41983E53E
:104CA00094E00E94E70B882309F4B6CF0E94D9193B
:104CB000B3CF0E947A0B60932802709329028093ED
:104CC0002A0290932B020E947A0B009128021091E5
:104CD000290220912A0230912B02601B710B820B5A
:104CE000930B683E73408105910510F560E08CE000
:104CF0000E9445080E94D00890E080E00E947F0654
:104D000083E294E00E94860B83E594E00E94860B88
:104D100083E294E00E94E70B81110E94B41983E5BD
:104D200094E00E94E70B882371F20E94D919CBCF3F
:104D3000E091D4038E2F90E0FC01EE0FFF1FE80FEF
:104D4000F91FE155FC4F80818F7B80838091F502B4
:104D50009091F602029709F082C18091F30290913E
:104D6000F402019709F082C18091EF029091F00264
:104D7000019709F07BC10E94861C8091F3029091FB
:104D8000F402019709F06BC10E947A0B609328022C
:104D90007093290280932A0290932B020E947A0B2F
:104DA000009128021091290220912A0230912B02B1
:104DB000601B710B820B930B60337340810591056F
:104DC000F0F40E94D00884EB90E00E947F0683E21A
:104DD00094E00E94860B83E594E00E94860B83E2B8
:104DE00094E00E94E70B81110E94B41983E594E0DE
:104DF0000E94E70B882391F20E94D919CFCF0E941D
:104E00007A0B609328027093290280932A02909370
:104E10002B020E947A0B0091280210912902209106
:104E20002A0230912B02601B710B820B930B683CA2
:104E300071058105910550F58AE590E00E947F0695
:104E4000E091D4038E2F90E0FC01EE0FFF1FE80FDE
:104E5000F91FE155FC4F80818F7B808383E294E0D2
:104E60000E94860B83E594E00E94860B83E294E027
:104E70000E94E70B81110E94B41983E594E00E941F
:104E8000E70B882331F20E94D919C3CF0E947A0B15
:104E9000609328027093290280932A0290932B0238
:104EA0000E947A0B009128021091290220912A0277
:104EB00030912B02601B710B820B930B683B7B4084
:104EC0008105910508F042C061E08CE00E94450830
:104ED00048EE53E060E070E084EF91E00E94290921
:104EE00060E273E080E090E00E94480B48EE53E0FF
:104EF00060E070E080E991E00E94290968EC70E0D0
:104F000080E090E00E94480B89E00E94730864E60C
:104F100070E080E090E00E94480B83E294E00E9401
:104F2000860B83E594E00E94860B83E294E00E9466
:104F3000E70B81110E94B41983E594E00E94E70B0E
:104F4000882309F4ADCF0E94D919AACF0E947A0B09
:104F5000609328027093290280932A0290932B0277
:104F60000E947A0B009128021091290220912A02B6
:104F700030912B02601B710B820B930B683C710507
:104F800081059105F8F460E08CE00E94450889E015
:104F90000E94730883E294E00E94860B83E594E00C
:104FA0000E94860B83E294E00E94E70B81110E942D
:104FB000B41983E594E00E94E70B882389F20E94EC
:104FC000D919CECF0E947A0B6093280270932902E0
:104FD00080932A0290932B020E947A0B0091280260
:104FE0001091290220912A0230912B02601B710B33
:104FF000820B930B683E73408105910510F560E0CC
:105000008CE00E9445080E94D00890E080E00E9459
:105010007F0683E294E00E94860B83E594E00E9481
:10502000860B83E294E00E94E70B81110E94B41981
:1050300083E594E00E94E70B882371F20E94D9195E
:10504000CBCFE091D4038E2F90E0FC01EE0FFF1F39
:10505000E80FF91FE155FC4F80818F7B80838091A1
:10506000F5029091F602029709F082C18091F30255
:105070009091F402029709F082C18091EF02909121
:10508000F002019709F07BC10E94CB1B8091F302D3
:105090009091F402029709F06BC10E947A0B609321
:1050A00028027093290280932A0290932B020E9477
:1050B0007A0B009128021091290220912A02309146
:1050C0002B02601B710B820B930B603575408105C1
:1050D0009105F0F40E94D00884EB90E00E947F06D6
:1050E00083E294E00E94860B83E594E00E94860BA5
:1050F00083E294E00E94E70B81110E94B41983E5DA
:1051000094E00E94E70B882391F20E94D919CFCF37
:105110000E947A0B609328027093290280932A02DE
:1051200090932B020E947A0B009128021091290281
:1051300020912A0230912B02601B710B820B930B82
:10514000683C71058105910550F58AE590E00E9463
:105150007F06E091D4038E2F90E0FC01EE0FFF1F3D
:10516000E80FF91FE155FC4F80818F7B808383E23C
:1051700094E00E94860B83E594E00E94860B83E214
:1051800094E00E94E70B81110E94B41983E594E03A
:105190000E94E70B882331F20E94D919C3CF0E94E5
:1051A0007A0B609328027093290280932A029093CD
:1051B0002B020E947A0B0091280210912902209163
:1051C0002A0230912B02601B710B820B930B683B00
:1051D0007B408105910508F042C061E08CE00E94AF
:1051E000450848EE53E060E070E084EF91E00E94F3
:1051F000290960E273E080E090E00E94480B48EEED
:1052000053E060E070E080E991E00E94290968ECD9
:1052100070E080E090E00E94480B89E00E947308F3
:1052200064E670E080E090E00E94480B83E294E046
:105230000E94860B83E594E00E94860B83E294E053
:105240000E94E70B81110E94B41983E594E00E944B
:10525000E70B882309F4ADCF0E94D919AACF0E9489
:105260007A0B609328027093290280932A0290930C
:105270002B020E947A0B00912802109129022091A2
:105280002A0230912B02601B710B820B930B683C3E
:10529000710581059105F8F460E08CE00E944508F5
:1052A00089E00E94730883E294E00E94860B83E504
:1052B00094E00E94860B83E294E00E94E70B811148
:1052C0000E94B41983E594E00E94E70B882389F2D9
:1052D0000E94D919CECF0E947A0B60932802709356
:1052E000290280932A0290932B020E947A0B00914C
:1052F00028021091290220912A0230912B02601B72
:10530000710B820B930B603476408105910510F58B
:1053100060E08CE00E9445080E94D00890E080E0A8
:105320000E947F0683E294E00E94860B83E594E06E
:105330000E94860B83E294E00E94E70B81110E9499
:10534000B41983E594E00E94E70B882371F20E9470
:10535000D919CBCFE091D4038E2F90E0FC01EE0F52
:10536000FF1FE80FF91FE155FC4F80818F7B808381
:105370008091F5029091F602029709F0A5C3809101
:10538000F3029091F402039709F082C18091EF0239
:105390009091F002019709F07BC10E94111B80914E
:1053A000F3029091F402039709F06BC10E947A0B0B
:1053B000609328027093290280932A0290932B0213
:1053C0000E947A0B009128021091290220912A0252
:1053D00030912B02601B710B820B930B683E764061
:1053E00081059105F0F40E94D00884EB90E00E94C2
:1053F0007F0683E294E00E94860B83E594E00E949E
:10540000860B83E294E00E94E70B81110E94B4199D
:1054100083E594E00E94E70B882391F20E94D9195A
:10542000CFCF0E947A0B6093280270932902809359
:105430002A0290932B020E947A0B0091280210916D
:10544000290220912A0230912B02601B710B820BE2
:10545000930B683C71058105910550F58AE590E054
:105460000E947F06E091D4038E2F90E0FC01EE0FA6
:10547000FF1FE80FF91FE155FC4F80818F7B808370
:1054800083E294E00E94860B83E594E00E94860B01
:1054900083E294E00E94E70B81110E94B41983E536
:1054A00094E00E94E70B882331F20E94D919C3CF00
:1054B0000E947A0B609328027093290280932A023B
:1054C00090932B020E947A0B0091280210912902DE
:1054D00020912A0230912B02601B710B820B930BDF
:1054E000683B7B408105910508F042C061E08CE09B
:1054F0000E94450848EE53E060E070E084EF91E0E0
:105500000E94290960E273E080E090E00E94480B6D
:1055100048EE53E060E070E080E991E00E942909E4
:1055200068EC70E080E090E00E94480B89E00E9407
:10553000730864E670E080E090E00E94480B83E22C
:1055400094E00E94860B83E594E00E94860B83E240
:1055500094E00E94E70B81110E94B41983E594E066
:105560000E94E70B882309F4ADCF0E94D919AACF76
:105570000E947A0B609328027093290280932A027A
:1055800090932B020E947A0B00912802109129021D
:1055900020912A0230912B02601B710B820B930B1E
:1055A000683C710581059105F8F460E08CE00E948B
:1055B000450889E00E94730883E294E00E94860B0C
:1055C00083E594E00E94860B83E294E00E94E70B5F
:1055D00081110E94B41983E594E00E94E70B8823AF
:1055E00089F20E94D919CECF0E947A0B60932802CB
:1055F0007093290280932A0290932B020E947A0BC7
:10560000009128021091290220912A0230912B0248
:10561000601B710B820B930B603D774081059105F8
:1056200010F560E08CE00E9445080E94D00890E0F0
:1056300080E00E947F0683E294E00E94860B83E56F
:1056400094E00E94860B83E294E00E94E70B8111B4
:105650000E94B41983E594E00E94E70B882371F25D
:105660000E94D919CBCFE091D4038E2F90E0FC019A
:10567000EE0FFF1FE80FF91FE155FC4F80818F7B74
:1056800080838091F5029091F602029709F01CC286
:105690008091F3029091F402049709F015C2809171
:1056A000EF029091F002019709F00EC210E000E0C5
:1056B0008091F3029091F402081719070CF096C03C
:1056C0000E947A0B609328027093290280932A0229
:1056D00090932B020E947A0BC0902802D09029024E
:1056E000E0902A02F0902B026C197D098E099F0927
:1056F000683C710581059105F8F440E050E0BA017D
:1057000083E290E00E94290983E294E00E94860BE4
:1057100083E594E00E94860B83E294E00E94E70B0D
:1057200081110E94B41983E594E00E94E70B88235D
:1057300089F20E94D919CECF0E947A0B6093280279
:105740007093290280932A0290932B020E947A0B75
:10575000C0902802D0902902E0902A02F0902B02FB
:105760006C197D098E099F09683C710581059105B9
:10577000D8F489E00E94730883E294E00E94860BCB
:1057800083E594E00E94860B83E294E00E94E70B9D
:1057900081110E94B41983E594E00E94E70B8823ED
:1057A000A9F20E94D919D2CFB801CE0101960E9468
:1057B0005B1A63E671E0CE0107960E94D81ABE011B
:1057C0006F5F7F4FCE0107960E94A51ABC0182E150
:1057D00093E00E94021ACE0107960E94091BCE0197
:1057E00001960E94091B0F5F1F4F62CF049709F0BB
:1057F0006BC10E947A0B60932802709329028093F8
:105800002A0290932B020E947A0B00912802109199
:10581000290220912A0230912B02601B710B820B0E
:10582000930B6038784081059105F0F40E94D00810
:1058300084EB90E00E947F0683E294E00E94860B56
:1058400083E594E00E94860B83E294E00E94E70BDC
:1058500081110E94B41983E594E00E94E70B88232C
:1058600091F20E94D919CFCF0E947A0B609328023F
:105870007093290280932A0290932B020E947A0B44
:10588000009128021091290220912A0230912B02C6
:10589000601B710B820B930B683C710581059105B0
:1058A00050F58AE590E00E947F06E091D4038E2FA8
:1058B00090E0FC01EE0FFF1FE80FF91FE155FC4FD0
:1058C00080818F7B808383E294E00E94860B83E556
:1058D00094E00E94860B83E294E00E94E70B811122
:1058E0000E94B41983E594E00E94E70B882331F20B
:1058F0000E94D919C3CF0E947A0B6093280270933B
:10590000290280932A0290932B020E947A0B009125
:1059100028021091290220912A0230912B02601B4B
:10592000710B820B930B683B7B408105910508F05E
:1059300042C061E08CE00E94450848EE53E060E020
:1059400070E084EF91E00E94290960E273E080E05A
:1059500090E00E94480B48EE53E060E070E080E980
:1059600091E00E94290968EC70E080E090E00E94DC
:10597000480B89E00E94730864E670E080E090E0E4
:105980000E94480B83E294E00E94860B83E594E03A
:105990000E94860B83E294E00E94E70B81110E9433
:1059A000B41983E594E00E94E70B882309F4ADCF96
:1059B0000E94D919AACF0E947A0B60932802709393
:1059C000290280932A0290932B020E947A0B009165
:1059D00028021091290220912A0230912B02601B8B
:1059E000710B820B930B683C710581059105F8F4EE
:1059F00060E08CE00E94450889E00E94730883E221
:105A000094E00E94860B83E594E00E94860B83E27B
:105A100094E00E94E70B81110E94B41983E594E0A1
:105A20000E94E70B882389F20E94D919CECF0E94E9
:105A30007A0B609328027093290280932A02909334
:105A40002B020E947A0B00912802109129022091CA
:105A50002A0230912B02601B710B820B930B6C3F5F
:105A600078408105910510F560E08CE00E944508C2
:105A70000E94D00890E080E00E947F0683E294E0DC
:105A80000E94860B83E594E00E94860B83E294E0FB
:105A90000E94E70B81110E94B41983E594E00E94F3
:105AA000E70B882371F20E94D919CBCFE091D40380
:105AB0008E2F90E0FC01EE0FFF1FE80FF91FE1555C
:105AC000FC4F80818F7B80838091F5029091F6025C
:105AD000039709F0CBC18091F3029091F4020197F2
